{
    "contractName": "Disney",
    "abi": [
        {
            "inputs": [],
            "stateMutability": "nonpayable",
            "type": "constructor"
        },
        {
            "anonymous": false,
            "inputs": [
                {
                    "indexed": false,
                    "internalType": "string",
                    "name": "",
                    "type": "string"
                }
            ],
            "name": "delAttraction",
            "type": "event"
        },
        {
            "anonymous": false,
            "inputs": [
                {
                    "indexed": false,
                    "internalType": "string",
                    "name": "",
                    "type": "string"
                }
            ],
            "name": "enjoyTransaction",
            "type": "event"
        },
        {
            "anonymous": false,
            "inputs": [
                {
                    "indexed": false,
                    "internalType": "string",
                    "name": "",
                    "type": "string"
                },
                {
                    "indexed": false,
                    "internalType": "uint256",
                    "name": "",
                    "type": "uint256"
                },
                {
                    "indexed": false,
                    "internalType": "address",
                    "name": "",
                    "type": "address"
                }
            ],
            "name": "foodBought",
            "type": "event"
        },
        {
            "anonymous": false,
            "inputs": [
                {
                    "indexed": false,
                    "internalType": "string",
                    "name": "",
                    "type": "string"
                },
                {
                    "indexed": false,
                    "internalType": "uint256",
                    "name": "",
                    "type": "uint256"
                }
            ],
            "name": "foodCreated",
            "type": "event"
        },
        {
            "anonymous": false,
            "inputs": [
                {
                    "indexed": false,
                    "internalType": "string",
                    "name": "",
                    "type": "string"
                }
            ],
            "name": "foodDisabled",
            "type": "event"
        },
        {
            "anonymous": false,
            "inputs": [
                {
                    "indexed": false,
                    "internalType": "string",
                    "name": "",
                    "type": "string"
                }
            ],
            "name": "foodEnabled",
            "type": "event"
        },
        {
            "anonymous": false,
            "inputs": [
                {
                    "indexed": false,
                    "internalType": "string",
                    "name": "",
                    "type": "string"
                },
                {
                    "indexed": false,
                    "internalType": "uint256",
                    "name": "",
                    "type": "uint256"
                }
            ],
            "name": "newAttraction",
            "type": "event"
        },
        {
            "inputs": [
                {
                    "internalType": "string",
                    "name": "",
                    "type": "string"
                }
            ],
            "name": "attractions",
            "outputs": [
                {
                    "internalType": "string",
                    "name": "attractionName",
                    "type": "string"
                },
                {
                    "internalType": "uint256",
                    "name": "attractionPrice",
                    "type": "uint256"
                },
                {
                    "internalType": "bool",
                    "name": "attractionState",
                    "type": "bool"
                }
            ],
            "stateMutability": "view",
            "type": "function"
        },
        {
            "inputs": [
                {
                    "internalType": "address",
                    "name": "_owner",
                    "type": "address"
                }
            ],
            "name": "balanceOf",
            "outputs": [
                {
                    "internalType": "uint256",
                    "name": "",
                    "type": "uint256"
                }
            ],
            "stateMutability": "view",
            "type": "function"
        },
        {
            "inputs": [
                {
                    "internalType": "string",
                    "name": "_foodName",
                    "type": "string"
                }
            ],
            "name": "buyFood",
            "outputs": [],
            "stateMutability": "nonpayable",
            "type": "function"
        },
        {
            "inputs": [
                {
                    "internalType": "uint256",
                    "name": "_amount",
                    "type": "uint256"
                }
            ],
            "name": "buyTokens",
            "outputs": [],
            "stateMutability": "payable",
            "type": "function"
        },
        {
            "inputs": [
                {
                    "internalType": "address",
                    "name": "",
                    "type": "address"
                }
            ],
            "name": "clients",
            "outputs": [
                {
                    "internalType": "uint256",
                    "name": "boughtTokens",
                    "type": "uint256"
                }
            ],
            "stateMutability": "view",
            "type": "function"
        },
        {
            "inputs": [
                {
                    "internalType": "string",
                    "name": "_name",
                    "type": "string"
                },
                {
                    "internalType": "uint256",
                    "name": "_price",
                    "type": "uint256"
                }
            ],
            "name": "createNewAttraction",
            "outputs": [],
            "stateMutability": "nonpayable",
            "type": "function"
        },
        {
            "inputs": [
                {
                    "internalType": "string",
                    "name": "_foodName",
                    "type": "string"
                },
                {
                    "internalType": "uint256",
                    "name": "_foodPrice",
                    "type": "uint256"
                }
            ],
            "name": "createNewFood",
            "outputs": [],
            "stateMutability": "nonpayable",
            "type": "function"
        },
        {
            "inputs": [
                {
                    "internalType": "string",
                    "name": "_name",
                    "type": "string"
                }
            ],
            "name": "disableAttraction",
            "outputs": [],
            "stateMutability": "nonpayable",
            "type": "function"
        },
        {
            "inputs": [
                {
                    "internalType": "string",
                    "name": "_foodName",
                    "type": "string"
                }
            ],
            "name": "disableFood",
            "outputs": [],
            "stateMutability": "nonpayable",
            "type": "function"
        },
        {
            "inputs": [
                {
                    "internalType": "string",
                    "name": "_foodName",
                    "type": "string"
                }
            ],
            "name": "enableFood",
            "outputs": [],
            "stateMutability": "nonpayable",
            "type": "function"
        },
        {
            "inputs": [
                {
                    "internalType": "string",
                    "name": "_attractionName",
                    "type": "string"
                }
            ],
            "name": "enterAttraction",
            "outputs": [],
            "stateMutability": "nonpayable",
            "type": "function"
        },
        {
            "inputs": [],
            "name": "getAttractions",
            "outputs": [
                {
                    "internalType": "string[]",
                    "name": "",
                    "type": "string[]"
                }
            ],
            "stateMutability": "view",
            "type": "function"
        },
        {
            "inputs": [
                {
                    "internalType": "address",
                    "name": "_client",
                    "type": "address"
                }
            ],
            "name": "getClientHistory",
            "outputs": [
                {
                    "internalType": "string[]",
                    "name": "",
                    "type": "string[]"
                }
            ],
            "stateMutability": "view",
            "type": "function"
        },
        {
            "inputs": [
                {
                    "internalType": "address",
                    "name": "_client",
                    "type": "address"
                }
            ],
            "name": "getFoodHistory",
            "outputs": [
                {
                    "internalType": "string[]",
                    "name": "",
                    "type": "string[]"
                }
            ],
            "stateMutability": "view",
            "type": "function"
        },
        {
            "inputs": [
                {
                    "internalType": "uint256",
                    "name": "_amount",
                    "type": "uint256"
                }
            ],
            "name": "giveBackTokens",
            "outputs": [],
            "stateMutability": "payable",
            "type": "function"
        },
        {
            "inputs": [
                {
                    "internalType": "uint256",
                    "name": "_amount",
                    "type": "uint256"
                }
            ],
            "name": "mintTokens",
            "outputs": [],
            "stateMutability": "nonpayable",
            "type": "function"
        },
        {
            "inputs": [],
            "name": "owner",
            "outputs": [
                {
                    "internalType": "address payable",
                    "name": "",
                    "type": "address"
                }
            ],
            "stateMutability": "view",
            "type": "function"
        }
    ],
    "bytecode": "608060405234801561001057600080fd5b5061271060405161002090610072565b908152602001604051809103906000f080158015610042573d6000803e3d6000fd5b50600080546001600160a01b03929092166001600160a01b0319928316179055600180549091163317905561007f565b6107c5806116de83390190565b6116508061008e6000396000f3fe6080604052600436106100fd5760003560e01c806363447d2711610095578063a1e91afc11610064578063a1e91afc146102a8578063bcda85ac146102d7578063bdd0218a146102f7578063e637f00314610317578063e99779431461033757600080fd5b806363447d271461021057806370a08231146102305780638da5cb5b1461025057806397304ced1461028857600080fd5b80633610724e116100d15780633610724e1461019a5780633fb5c043146101ad578063498f7301146101c257806361eed2a9146101d557600080fd5b80624b50bf1461010257806310ffd3da1461012457806332cc07a41461015a57806334e3de911461017a575b600080fd5b34801561010e57600080fd5b5061012261011d3660046112fa565b610357565b005b34801561013057600080fd5b5061014461013f366004611337565b6104bd565b60405161015191906113bc565b60405180910390f35b34801561016657600080fd5b506101226101753660046112fa565b6105ac565b34801561018657600080fd5b5061012261019536600461141e565b61069c565b6101226101a8366004611463565b6107a1565b3480156101b957600080fd5b50610144610937565b6101226101d0366004611463565b610a10565b3480156101e157600080fd5b506102026101f0366004611337565b60026020526000908152604090205481565b604051908152602001610151565b34801561021c57600080fd5b5061012261022b3660046112fa565b610b12565b34801561023c57600080fd5b5061020261024b366004611337565b610bf7565b34801561025c57600080fd5b50600154610270906001600160a01b031681565b6040516001600160a01b039091168152602001610151565b34801561029457600080fd5b506101226102a3366004611463565b610c6c565b3480156102b457600080fd5b506102c86102c33660046112fa565b610ce4565b6040516101519392919061147c565b3480156102e357600080fd5b506101226102f236600461141e565b610d9d565b34801561030357600080fd5b506101226103123660046112fa565b610e5d565b34801561032357600080fd5b50610144610332366004611337565b610ed7565b34801561034357600080fd5b506101226103523660046112fa565b610fbb565b600060078260405161036991906114a6565b90815260200160405180910390206001015490508061038733610bf7565b10156103ce5760405162461bcd60e51b81526020600482015260116024820152704e6f7420456e6f75676820546f6b656e7360781b60448201526064015b60405180910390fd5b6000546040516323b872dd60e01b8152336004820152306024820152604481018390526001600160a01b03909116906323b872dd906064016020604051808303816000875af1158015610425573d6000803e3d6000fd5b505050506040513d601f19601f8201168201806040525081019061044991906114c2565b503360009081526008602090815260408220805460018101825590835291819020845161047d9391909101918501906111be565b507f2b06a31ddee55db89ef5ddc150ff51148b69fe7d6d4512444682c3568681bd8a8282336040516104b1939291906114e4565b60405180910390a15050565b6001600160a01b0381166000908152600860209081526040808320805482518185028101850190935280835260609492939192909184015b828210156105a157838290600052602060002001805461051490611517565b80601f016020809104026020016040519081016040528092919081815260200182805461054090611517565b801561058d5780601f106105625761010080835404028352916020019161058d565b820191906000526020600020905b81548152906001019060200180831161057057829003601f168201915b5050505050815260200190600101906104f5565b505050509050919050565b6001546001600160a01b031633146105c357600080fd5b6007816040516105d391906114a6565b9081526040519081900360200190206002015460ff1661062e5760405162461bcd60e51b81526020600482015260166024820152752337b7b21020b63932b0b23c902234b9b0b13632b21760511b60448201526064016103c5565b600060078260405161064091906114a6565b908152604051908190036020018120600201805492151560ff19909316929092179091557fc9e271efdb7b3814db3b8d6900b91c3ede8bb306d5645f866c2802374a67f23390610691908390611552565b60405180910390a150565b6001546001600160a01b031633146106b357600080fd5b604080516060810182528381526020810183905260018183015290516003906106dd9085906114a6565b908152602001604051809103902060008201518160000190805190602001906107079291906111be565b506020828101516001838101919091556040909301516002909201805460ff191692151592909217909155600480549283018155600052835161076f927f8a35acfbc15ff81a39ae7d344fd709f28e8600b4aa8c65c6b64bfe7fe36bd19b01918501906111be565b507ffbd98b202ff1679e0d608c95a1d2557e4663091d0332ab674181efe9571dd84e82826040516104b1929190611565565b60006107ac82611184565b9050803410156107f75760405162461bcd60e51b81526020600482015260166024820152752737ba1022b737bab3b41022ba3432b91029b2b73a1760511b60448201526064016103c5565b6000610803823461159d565b604051909150339082156108fc029083906000818181858888f19350505050158015610833573d6000803e3d6000fd5b50600061083f30610bf7565b9050808410156108915760405162461bcd60e51b815260206004820152601f60248201527f436f6e747261637420686173206e6f7420656e6f75676820746f6b656e732e0060448201526064016103c5565b60005460405163a9059cbb60e01b8152336004820152602481018690526001600160a01b039091169063a9059cbb906044016020604051808303816000875af11580156108e2573d6000803e3d6000fd5b505050506040513d601f19601f8201168201806040525081019061090691906114c2565b50336000908152600260205260409020546109219085611198565b3360009081526002602052604090205550505050565b60606004805480602002602001604051908101604052809291908181526020016000905b82821015610a0757838290600052602060002001805461097a90611517565b80601f01602080910402602001604051908101604052809291908181526020018280546109a690611517565b80156109f35780601f106109c8576101008083540402835291602001916109f3565b820191906000526020600020905b8154815290600101906020018083116109d657829003601f168201915b50505050508152602001906001019061095b565b50505050905090565b80610a1a33610bf7565b1015610a5d5760405162461bcd60e51b81526020600482015260126024820152712737ba1022b737bab3b4102a37b5b2b7399760711b60448201526064016103c5565b6000546040516323b872dd60e01b8152336004820152306024820152604481018390526001600160a01b03909116906323b872dd906064016020604051808303816000875af1158015610ab4573d6000803e3d6000fd5b505050506040513d601f19601f82011682018060405250810190610ad891906114c2565b50336108fc610ae683611184565b6040518115909202916000818181858888f19350505050158015610b0e573d6000803e3d6000fd5b5050565b6001546001600160a01b03163314610b2957600080fd5b600781604051610b3991906114a6565b9081526040519081900360200190206002015460ff1615610b945760405162461bcd60e51b81526020600482015260156024820152742337b7b21020b63932b0b23c9022b730b13632b21760591b60448201526064016103c5565b6001600782604051610ba691906114a6565b908152604051908190036020018120600201805492151560ff19909316929092179091557f075102ae8214f2d5f1016a2fe32155e769c9a2ff4f7d96cc1df5c12bb3259f4790610691908390611552565b600080546040516370a0823160e01b81526001600160a01b038481166004830152909116906370a0823190602401602060405180830381865afa158015610c42573d6000803e3d6000fd5b505050506040513d601f19601f82011682018060405250810190610c6691906115b4565b92915050565b6001546001600160a01b03163314610c8357600080fd5b6000546040516303a8799360e31b8152600481018390526001600160a01b0390911690631d43cc9890602401600060405180830381600087803b158015610cc957600080fd5b505af1158015610cdd573d6000803e3d6000fd5b5050505050565b8051602081830181018051600382529282019190930120915280548190610d0a90611517565b80601f0160208091040260200160405190810160405280929190818152602001828054610d3690611517565b8015610d835780601f10610d5857610100808354040283529160200191610d83565b820191906000526020600020905b815481529060010190602001808311610d6657829003601f168201915b50505050600183015460029093015491929160ff16905083565b6001546001600160a01b03163314610db457600080fd5b60408051606081018252838152602081018390526001818301529051600790610dde9085906114a6565b90815260200160405180910390206000820151816000019080519060200190610e089291906111be565b50602082015160018201556040918201516002909101805460ff1916911515919091179055517ffc038c007172199d89d91bedf07118f1c702bce1f70b43be4b22776ae716f750906104b19084908490611565565b6001546001600160a01b03163314610e7457600080fd5b6000600382604051610e8691906114a6565b908152604051908190036020018120600201805492151560ff19909316929092179091557f9bf085025c56825621b621a5e1b21020838e2e0782e1110c68c641f5dc05bd3490610691908390611552565b6001600160a01b0381166000908152600560209081526040808320805482518185028101850190935280835260609492939192909184015b828210156105a1578382906000526020600020018054610f2e90611517565b80601f0160208091040260200160405190810160405280929190818152602001828054610f5a90611517565b8015610fa75780601f10610f7c57610100808354040283529160200191610fa7565b820191906000526020600020905b815481529060010190602001808311610f8a57829003601f168201915b505050505081526020019060010190610f0f565b6000600382604051610fcd91906114a6565b9081526020016040518091039020600101549050600382604051610ff191906114a6565b9081526040519081900360200190206002015460ff1615156001146110585760405162461bcd60e51b815260206004820152601960248201527f41747472616374696f6e204e6f7420417661696c61626c652e0000000000000060448201526064016103c5565b61106133610bf7565b8111156110a55760405162461bcd60e51b81526020600482015260126024820152712737ba1022b737bab3b4102a37b5b2b7399760711b60448201526064016103c5565b6000546040516323b872dd60e01b8152336004820152306024820152604481018390526001600160a01b03909116906323b872dd906064016020604051808303816000875af11580156110fc573d6000803e3d6000fd5b505050506040513d601f19601f8201168201806040525081019061112091906114c2565b50336000908152600560209081526040822080546001810182559083529181902084516111549391909101918501906111be565b507f9ce5a58de06be1da736693c7a466f5d2321df8e5dfc217732a7d07d0f292e92e826040516104b19190611552565b6000610c6682670de0b6b3a76400006115cd565b6000806111a583856115ec565b9050838110156111b7576111b7611604565b9392505050565b8280546111ca90611517565b90600052602060002090601f0160209004810192826111ec5760008555611232565b82601f1061120557805160ff1916838001178555611232565b82800160010185558215611232579182015b82811115611232578251825591602001919060010190611217565b5061123e929150611242565b5090565b5b8082111561123e5760008155600101611243565b634e487b7160e01b600052604160045260246000fd5b600082601f83011261127e57600080fd5b813567ffffffffffffffff8082111561129957611299611257565b604051601f8301601f19908116603f011681019082821181831017156112c1576112c1611257565b816040528381528660208588010111156112da57600080fd5b836020870160208301376000602085830101528094505050505092915050565b60006020828403121561130c57600080fd5b813567ffffffffffffffff81111561132357600080fd5b61132f8482850161126d565b949350505050565b60006020828403121561134957600080fd5b81356001600160a01b03811681146111b757600080fd5b60005b8381101561137b578181015183820152602001611363565b8381111561138a576000848401525b50505050565b600081518084526113a8816020860160208601611360565b601f01601f19169290920160200192915050565b6000602080830181845280855180835260408601915060408160051b870101925083870160005b8281101561141157603f198886030184526113ff858351611390565b945092850192908501906001016113e3565b5092979650505050505050565b6000806040838503121561143157600080fd5b823567ffffffffffffffff81111561144857600080fd5b6114548582860161126d565b95602094909401359450505050565b60006020828403121561147557600080fd5b5035919050565b60608152600061148f6060830186611390565b602083019490945250901515604090910152919050565b600082516114b8818460208701611360565b9190910192915050565b6000602082840312156114d457600080fd5b815180151581146111b757600080fd5b6060815260006114f76060830186611390565b6020830194909452506001600160a01b0391909116604090910152919050565b600181811c9082168061152b57607f821691505b6020821081141561154c57634e487b7160e01b600052602260045260246000fd5b50919050565b6020815260006111b76020830184611390565b6040815260006115786040830185611390565b90508260208301529392505050565b634e487b7160e01b600052601160045260246000fd5b6000828210156115af576115af611587565b500390565b6000602082840312156115c657600080fd5b5051919050565b60008160001904831182151516156115e7576115e7611587565b500290565b600082198211156115ff576115ff611587565b500190565b634e487b7160e01b600052600160045260246000fdfea264697066735822122000a6d9f06e02e982ca76dc8de1c8acddb7d0a10d1f9fe5d8a4900427179035f264736f6c634300080a0033608060405234801561001057600080fd5b506040516107c53803806107c583398101604081905261002f91610046565b60008181553381526001602052604090205561005f565b60006020828403121561005857600080fd5b5051919050565b6107578061006e6000396000f3fe608060405234801561001057600080fd5b506004361061009e5760003560e01c8063313ce56711610066578063313ce5671461013f57806370a082311461015957806395d89b4114610182578063a9059cbb146101a5578063dd62ed3e146101b857600080fd5b806306fdde03146100a3578063095ea7b3146100e257806318160ddd146101055780631d43cc981461011757806323b872dd1461012c575b600080fd5b6100cc6040518060400160405280600a81526020016922a92199182a37b5b2b760b11b81525081565b6040516100d99190610588565b60405180910390f35b6100f56100f03660046105f9565b6101f1565b60405190151581526020016100d9565b6000545b6040519081526020016100d9565b61012a610125366004610623565b61025d565b005b6100f561013a36600461063c565b61029a565b610147601281565b60405160ff90911681526020016100d9565b610109610167366004610678565b6001600160a01b031660009081526001602052604090205490565b6100cc60405180604001604052806004815260200163115490d560e21b81525081565b6100f56101b33660046105f9565b61045a565b6101096101c6366004610693565b6001600160a01b03918216600090815260026020908152604080832093909416825291909152205490565b3360008181526002602090815260408083206001600160a01b038716808552925280832085905551919290917f8c5be1e5ebec7d5bd14f71427d1e84f3dd0314c0f7b2291e5b200ac8c7c3b9259061024c9086815260200190565b60405180910390a350600192915050565b8060008082825461026e91906106dc565b909155505033600090815260016020526040812080548392906102929084906106dc565b909155505050565b6001600160a01b0383166000908152600160205260408120548210156102fb5760405162461bcd60e51b81526020600482015260116024820152704e6f7420456e6f75676820546f6b656e7360781b60448201526064015b60405180910390fd5b6001600160a01b038416600090815260026020908152604080832033845290915290205482101561035c5760405162461bcd60e51b815260206004820152600b60248201526a139bdd08105b1b1bddd95960aa1b60448201526064016102f2565b6001600160a01b03841660009081526001602052604090205461037f9083610546565b6001600160a01b03851660009081526001602090815260408083209390935560028152828220338352905220546103b69083610546565b6001600160a01b0380861660009081526002602090815260408083203384528252808320949094559186168152600190915220546103f49083610569565b6001600160a01b0380851660008181526001602052604090819020939093559151908616907fddf252ad1be2c89b69c2b068fc378daa952ba7f163c4a11628f55a4df523b3ef906104489086815260200190565b60405180910390a35060019392505050565b336000908152600160205260408120548210156104af5760405162461bcd60e51b81526020600482015260136024820152722737ba1032b737bab3b4103130b630b731b29760691b60448201526064016102f2565b336000908152600160205260409020546104c99083610546565b33600090815260016020526040808220929092556001600160a01b038516815220546104f59083610569565b6001600160a01b0384166000818152600160205260409081902092909255905133907fddf252ad1be2c89b69c2b068fc378daa952ba7f163c4a11628f55a4df523b3ef9061024c9086815260200190565b600082821115610558576105586106f4565b610562828461070a565b9392505050565b60008061057683856106dc565b905083811015610562576105626106f4565b600060208083528351808285015260005b818110156105b557858101830151858201604001528201610599565b818111156105c7576000604083870101525b50601f01601f1916929092016040019392505050565b80356001600160a01b03811681146105f457600080fd5b919050565b6000806040838503121561060c57600080fd5b610615836105dd565b946020939093013593505050565b60006020828403121561063557600080fd5b5035919050565b60008060006060848603121561065157600080fd5b61065a846105dd565b9250610668602085016105dd565b9150604084013590509250925092565b60006020828403121561068a57600080fd5b610562826105dd565b600080604083850312156106a657600080fd5b6106af836105dd565b91506106bd602084016105dd565b90509250929050565b634e487b7160e01b600052601160045260246000fd5b600082198211156106ef576106ef6106c6565b500190565b634e487b7160e01b600052600160045260246000fd5b60008282101561071c5761071c6106c6565b50039056fea26469706673582212206174f1a96b3301891e3fa7c555a1a81ae6661cb1c3a7f07c2235bc8e5b5fd95e64736f6c634300080a0033",
    "sourcePath": "c:/Users/manue/OneDrive/Escritorio/Cursos/Blockchain-Disney-Tokens-Payment/disney.sol",
    "compiler": {
        "name": "solc",
        "version": "0.8.10+commit.fc410830"
    },
    "functionHashes": {
        "attractions(string)": "a1e91afc",
        "balanceOf(address)": "70a08231",
        "buyFood(string)": "004b50bf",
        "buyTokens(uint256)": "3610724e",
        "clients(address)": "61eed2a9",
        "createNewAttraction(string,uint256)": "34e3de91",
        "createNewFood(string,uint256)": "bcda85ac",
        "disableAttraction(string)": "bdd0218a",
        "disableFood(string)": "32cc07a4",
        "enableFood(string)": "63447d27",
        "enterAttraction(string)": "e9977943",
        "getAttractions()": "3fb5c043",
        "getClientHistory(address)": "e637f003",
        "getFoodHistory(address)": "10ffd3da",
        "giveBackTokens(uint256)": "498f7301",
        "mintTokens(uint256)": "97304ced",
        "owner()": "8da5cb5b"
    },
    "gasEstimates": {
        "creation": {
            "codeDepositCost": "1142400",
            "executionCost": "infinite",
            "totalCost": "infinite"
        },
        "external": {
            "attractions(string)": "infinite",
            "balanceOf(address)": "infinite",
            "buyFood(string)": "infinite",
            "buyTokens(uint256)": "infinite",
            "clients(address)": "2573",
            "createNewAttraction(string,uint256)": "infinite",
            "createNewFood(string,uint256)": "infinite",
            "disableAttraction(string)": "infinite",
            "disableFood(string)": "infinite",
            "enableFood(string)": "infinite",
            "enterAttraction(string)": "infinite",
            "getAttractions()": "infinite",
            "getClientHistory(address)": "infinite",
            "getFoodHistory(address)": "infinite",
            "giveBackTokens(uint256)": "infinite",
            "mintTokens(uint256)": "infinite",
            "owner()": "2404"
        },
        "internal": {
            "tokenPrice(uint256)": "127"
        }
    }
}